:100000000C9462000C948A000C948A000C948A0070
:100010000C948A000C948A000C948A000C948A0038
:100020000C948A000C948A000C948A000C948A0028
:100030000C948A000C948A000C948A000C948A0018
:100040000C9448050C948A000C94B8050C94920505
:100050000C948A000C948A000C948A000C948A00F8
:100060000C948A000C948A000000000024002700F1
:100070002A0000000000250028002B0000000000DE
:1000800023002600290004040404040404040202DA
:100090000202020203030303030301020408102007
:1000A0004080010204081020010204081020000012
:1000B0000008000201000003040700000000000027
:1000C0000000EA0511241FBECFEFD8E0DEBFCDBF90
:1000D00011E0A0E0B1E0E0EFF4E102C005900D9284
:1000E000A638B107D9F722E0A6E8B1E001C01D9219
:1000F000AA33B207E1F710E0C2E6D0E004C02197CE
:10010000FE010E946B0AC136D107C9F70E94210681
:100110000C94760A0C940000833081F028F481302E
:1001200099F08230A1F008958730A9F08830B9F0B5
:100130008430D1F4809180008F7D03C08091800055
:100140008F7780938000089584B58F7702C084B53F
:100150008F7D84BD08958091B0008F7703C080911A
:10016000B0008F7D8093B0000895CF93DF93282F48
:1001700030E0F901E255FF4F8491F901E656FF4F57
:10018000D491F901EA57FF4FC491CC2391F081112A
:100190000E948C00EC2FF0E0EE0FFF1FE458FF4FA1
:1001A000A591B491EC91ED2381E090E021F480E001
:1001B00002C080E090E0DF91CF9108951F93CF932C
:1001C000DF93282F30E0F901E255FF4F8491F901C8
:1001D000E656FF4FD491F901EA57FF4FC491CC2363
:1001E000C9F0162F81110E948C00EC2FF0E0EE0F69
:1001F000FF1FEE58FF4FA591B4918FB7F8941111DE
:1002000005C09C91ED2FE095E92302C0EC91ED2B08
:10021000EC938FBFDF91CF911F910895CF93DF9320
:1002200090E0FC01E656FF4F2491FC01EA57FF4F96
:100230008491882361F190E0880F991FFC01E859AF
:10024000FF4FC591D491FC01EE58FF4FA591B49199
:10025000611109C09FB7F894888120958223888313
:10026000EC912E230BC0623061F49FB7F894388173
:10027000822F809583238883EC912E2B2C939FBF14
:1002800006C08FB7F894E8812E2B28838FBFDF91AB
:10029000CF9108953FB7F89480918701909188019C
:1002A000A0918901B0918A0126B5A89B05C02F3F76
:1002B00019F00196A11DB11D3FBFBA2FA92F982F8C
:1002C0008827820F911DA11DB11DBC01CD0142E007
:1002D000660F771F881F991F4A95D1F708958F924F
:1002E0009F92AF92BF92CF92DF92EF92FF926B01FB
:1002F0007C010E944A014B015C01C114D104E1045C
:10030000F104F1F00E944A01DC01CB01881999093E
:10031000AA09BB09883E9340A105B10570F321E00D
:10032000C21AD108E108F10888EE880E83E0981E11
:10033000A11CB11CC114D104E104F10419F7DDCFF3
:10034000FF90EF90DF90CF90BF90AF909F908F90F5
:100350000895EF92FF921F93CF93DF932FB7F894F6
:1003600080918B0190918C01A0918D01B0918E01B3
:100370002FBF409135025091360260913702709143
:10038000380284179507A607B70740F41092350284
:1003900010923602109237021092380220913902E0
:1003A000211113C0409135025091360260913702FD
:1003B00070913802841B950BA60BB70B803D9740BC
:1003C000A105B10510F481E092C0109239022FB757
:1003D000F89480918B0190918C01A0918D01B09146
:1003E0008E012FBF8093350290933602A09337027F
:1003F000B09338021092300210922F0210922E0207
:1004000010922D0210922C0261E0809132020E9423
:10041000DE006AEF70E080E090E00E946F0161E032
:10042000809132020E940E0160E0809132020E94AF
:10043000DE0064E170E080E090E00E946F01F894DB
:1004400061E0809132020E94DE008BE990E001972A
:10045000F1F760E0809132020E940E0110E0C0E0EE
:1004600081E0D0E0E82EF12C809132020E94B500AC
:100470008E159F0519F4DF5FDF3FB1F780913202DF
:100480000E94B500DF3FC1F0C43098F0C0FD11C03C
:10049000E12FE695E695E695F0E0E45DFD4F90816D
:1004A000990F9083209134022D1710F4916090835E
:1004B0001F5FCF5FC535A9F678941832B8F0209148
:1004C000300230E040912C0280912D0290E0840FA8
:1004D000911D40912E02840F911D40912F02840F97
:1004E000911D99272817390709F46DCF80E0DF9116
:1004F000CF911F91FF90EF900895CF92DF92EF92EE
:10050000FF92CF93DF93C82F0E94A901882309F49B
:1005100059C0909133029B3031F008F453C095518B
:100520009230A0F04FC060912E0270E080E090E029
:100530000E942009CC2309F44AC020E030E040E1C9
:1005400051E46B017C01C701B6012DC0D0912E0290
:100550006D2F6F7770E080E090E00E94220920E02C
:1005600030E040E853E40E94D7096B017C014091E0
:100570002F02642F70E080E090E00E9422099B012E
:10058000AC01C701B6010E940E0820E030E040E255
:1005900051E40E947F08D7FD9058CC23C1F020E0A1
:1005A00030E040E151E40E94D70920E030E040EA29
:1005B00050E40E947F0820E030E040E052E40E94D6
:1005C0000E0805C040E030E020EC9FE703C0462F56
:1005D000372F282FC42ED32EE22EF92EC701B601B5
:1005E000DF91CF91FF90EF90DF90CF900895CF9261
:1005F000DF92EF92FF920F931F93CF93DF936C01E3
:100600007A018B01C0E0D0E0CE15DF0589F0D8017A
:100610006D918D01D601ED91FC910190F081E02D5D
:10062000C6010995892B11F47E0102C02196ECCFF9
:10063000C701DF91CF911F910F91FF90EF90DF9055
:10064000CF900895089580E090E00895FC01538DC7
:10065000448D252F30E0842F90E0821B930B54179C
:1006600010F0CF96089501970895FC01918D828D29
:10067000981761F0828DDF01A80FB11D5D968C91F6
:10068000928D9F5F9F73928F90E008958FEF9FEF01
:100690000895FC01918D828D981731F0828DE80FBD
:1006A000F11D858D90E008958FEF9FEF0895FC0177
:1006B000918D228D892F90E0805C9F4F821B910944
:1006C0008F73992708958FE891E00E94570321E0E6
:1006D000892B09F420E0822F0895FC01848DDF012D
:1006E000A80FB11DA35ABF4F2C91848D90E00196A5
:1006F0008F739927848FA689B7892C93A089B18994
:100700008C9180648C93938D848D981306C002889D
:10071000F389E02D80818F7D80830895EF92FF9291
:100720000F931F93CF93DF93EC0181E0888F9B8D14
:100730008C8D981305C0E889F989808185FD24C0D6
:10074000F62E0B8D10E00F5F1F4F0F731127E02E59
:100750008C8DE8120CC00FB607FCFACFE889F98936
:10076000808185FFF5CFCE010E946D03F1CF8B8D87
:10077000FE01E80FF11DE35AFF4FF0820B8FEA896B
:10078000FB898081806207C0EE89FF896083E889E8
:10079000F98980818064808381E090E0DF91CF914E
:1007A0001F910F91FF90EF900895CF93DF93EC018D
:1007B000888D8823C9F0EA89FB89808185FD05C081
:1007C000A889B9898C9186FD0FC00FB607FCF5CFBB
:1007D000808185FFF2CFA889B9898C9185FFEDCF03
:1007E000CE010E946D03E7CFDF91CF91089580E0A5
:1007F00090E0892B29F00E94630381110C94000082
:100800000895009769F0FC0101900020E9F7319705
:10081000AF01481B590BBC018FE891E00C94F70223
:1008200080E090E00895CF93DF930E940104EC01F3
:1008300082E191E00E9401048C0F9D1FDF91CF9116
:1008400008958F929F92AF92BF920F931F93CF9371
:10085000DF93CDB7DEB7A1970FB6F894DEBF0FBE1A
:10086000CDBF19A2423008F44AE08E010F5D1F4F40
:10087000842E912CA12CB12CA50194010E94490A2F
:10088000E62FB901CA0101501109EA3014F4E05D04
:1008900001C0E95CD801EC93232B242B252B61F7B5
:1008A000C8010E940104A1960FB6F894DEBF0FBEE6
:1008B000CDBFDF91CF911F910F91BF90AF909F90CF
:1008C0008F9008954F925F926F927F928F929F9236
:1008D000AF92BF92CF92DF92EF92FF926B017C01B9
:1008E000B42E9B01AC010E94440A882319F085E1D3
:1008F00091E027C026013701E89477F82FEF3FEF0A
:100900004FE75FE7C301B2010E94440A81110DC0A5
:100910002FEF3FEF4FE75FE7C301B2010E947A0874
:1009200018161CF489E191E00CC02FEF3FEF4FE760
:100930005FE4C701B6010E94D209181684F48DE164
:1009400091E0FF90EF90DF90CF90BF90AF909F909D
:100950008F907F906F905F904F900C9401042FEFD9
:100960003FEF4FE75FECC701B6010E947A0887FDB1
:10097000E6CF20E030E0A901C701B6010E947A0865
:1009800087FF11C0E0918F01F09190010190F081FB
:10099000E02D6DE28FE891E009954C01F7FAF094B3
:1009A000F7F8F09402C0812C912CA12C60E070E04B
:1009B00080E09FE3AB1441F020E030E040E251E4FE
:1009C0000E947F08A394F6CF9B01AC01C701B6013A
:1009D0000E940E082B013C010E94F1086B017C0172
:1009E0000E9420099B01AC01C301B2010E940D08C5
:1009F0002B013C014AE0C701B6010E9421047C01A1
:100A0000E80CF91CBB2069F0E0918F01F091900196
:100A10000190F081E02D6EE28FE891E00995E80EFB
:100A2000F91EDB2CDD2021F120E030E040E251E432
:100A3000C301B2010E94D7092B013C010E94F108B9
:100A40004B01A12CB12C4AE0C501B4010E94210444
:100A5000E80EF91EC501B4010E9420099B01AC01FA
:100A6000C301B2010E940D082B013C01DA94DACFD8
:100A7000C701FF90EF90DF90CF90BF90AF909F9015
:100A80008F907F906F905F904F9008950E94710AB1
:100A90001F920F920FB60F9211242F933F938F93B3
:100AA0009F93AF93BF9380918B0190918C01A09104
:100AB0008D01B0918E013091860123E0230F2D37F7
:100AC00020F40196A11DB11D05C026E8230F029652
:100AD000A11DB11D2093860180938B0190938C0101
:100AE000A0938D01B0938E01809187019091880130
:100AF000A0918901B0918A010196A11DB11D809339
:100B0000870190938801A0938901B0938A01BF91D6
:100B1000AF919F918F913F912F910F900FBE0F90AA
:100B20001F9018951F920F920FB60F9211242F93BA
:100B30003F934F935F936F937F938F939F93AF9365
:100B4000BF93EF93FF938FE891E00E946D03FF91B5
:100B5000EF91BF91AF919F918F917F916F915F9135
:100B60004F913F912F910F900FBE0F901F901895AE
:100B70001F920F920FB60F9211242F938F939F9372
:100B8000EF93FF93E0919F01F091A0018081E091AC
:100B9000A501F091A60182FD12C090818091A8016B
:100BA0008F5F8F732091A901821751F0E091A80106
:100BB000F0E0E157FE4F958F8093A80101C080813E
:100BC000FF91EF919F918F912F910F900FBE0F90FA
:100BD0001F901895EFE8F1E01382128288EE93E0FF
:100BE000A0E0B0E084839583A683B78384E091E09E
:100BF0009183808385EC90E09587848784EC90E0F6
:100C00009787868780EC90E0918B808B81EC90E0D9
:100C1000938B828B82EC90E0958B848B86EC90E0BA
:100C2000978B868B118E128E138E148EECE2F2E06F
:100C300084E0868386E1878386E0808781E08587FC
:100C40000895CF93DF93CDB7DEB72C970FB6F89406
:100C5000DEBF0FBECDBF789484B5826084BD84B5FD
:100C6000816084BD85B5826085BD85B5816085BDA7
:100C700080916E00816080936E001092810080915F
:100C800081008260809381008091810081608093E7
:100C90008100809180008160809380008091B1000C
:100CA00084608093B1008091B00081608093B00037
:100CB00080917A00846080937A0080917A008260CB
:100CC00080937A0080917A00816080937A0080918D
:100CD0007A00806880937A001092C100E0919F01B1
:100CE000F091A00182E08083E0919B01F0919C0152
:100CF0001082E0919D01F0919E018FEC8083109213
:100D0000A701E091A301F091A40186E08083E09126
:100D1000A101F091A201808180618083E091A10115
:100D2000F091A201808188608083E091A101F0911F
:100D3000A201808180688083E091A101F091A201ED
:100D400080818F7D808381E291E00E94130460E0C6
:100D5000809132020E940E0161E0809132020E9475
:100D6000DE00109235021092360210923702109275
:100D7000380260ED77E080E090E00E946F010E9411
:100D8000A9018823B1F1809133028B3041F188F1C0
:100D90008551823070F560912C0270E080E090E027
:100DA0000E94200920E030E040E853E40E94D70987
:100DB0006B017C0180912D02682F70E080E090E053
:100DC0000E9422099B01AC01C701B6010E940E08D6
:100DD00020E030E040E251E40E947F0807C06091CB
:100DE0002C0270E080E090E00E9420096B017C0101
:100DF00006C0C12CD12C80ECE82E8FE7F82E80E0C5
:100E00000E947D0269837A838B839C8381E00E94A8
:100E10007D024B015C01A7019601C701B6010E944A
:100E2000440A8111F3C029813A814B815C81CA0156
:100E3000B9010E94440A8111E9C0A5019401C501CC
:100E4000B4010E94440A8111E1C0A5019401C501C9
:100E5000B4010E94D7096D837E838F839887A70191
:100E60009601C701B6010E94D70969877A878B87E7
:100E70009C8721E133E243E050E4C501B4010E94C4
:100E8000D70929E134E849E252E40E940D082B0118
:100E90003C0126E13BE442E251E4C701B6010E9475
:100EA000D7099B01AC01C301B2010E940E082B01BE
:100EB0003C0128E436E246E65EEBC501B4010E943F
:100EC000D709A70196010E94D7099B01AC01C30174
:100ED000B2010E940E082B013C0120EE3FE040EEE3
:100EE0005BEB6D817E818F8198850E94D7099B0184
:100EF000AC01C301B2010E940E082B013C0128EF96
:100F000037E840E65DEB69857A858B859C850E9494
:100F1000D7099B01AC01C301B2010E940E082B014D
:100F20003C012CEA3DE041EA5AE36D817E818F81EC
:100F300098850E94D709A70196010E94D7099B01B5
:100F4000AC01C301B2010E940E082B013C0128EC48
:100F50003FE84FE55AE3C501B4010E94D70929854E
:100F60003A854B855C850E94D7099B01AC01C30182
:100F7000B2010E940E082B013C0121EF3BE845E045
:100F800056EB6D817E818F8198850E94D7092985D6
:100F90003A854B855C850E94D7099B01AC01C30152
:100FA000B2010E940E082B013C018DE291E00E94EB
:100FB000010442E0C701B6010E94620488E391E0A7
:100FC0000E9401048CE391E00E94010442E06981E7
:100FD0007A818B819C810E9462048AE491E00E9464
:100FE000010442E0C501B4010E9462048FE491E073
:100FF0000E94010484E591E00E94010442E0C301E3
:10100000B2010E94620481E691E002C085E691E0AF
:101010000E9413040E94F703ACCE5058BB27AA27A6
:101020000E9425080C9498090E948A0938F00E94B1
:10103000910920F039F49F3F19F426F40C948709A4
:101040000EF4E095E7FB0C948109E92F0E94A909B1
:1010500058F3BA17620773078407950720F079F4ED
:10106000A6F50C94CB090EF4E0950B2EBA2FA02D0B
:101070000B01B90190010C01CA01A0011124FF2745
:10108000591B99F0593F50F4503E68F11A16F04040
:10109000A22F232F342F4427585FF3CF469537953F
:1010A0002795A795F0405395C9F77EF41F16BA0B04
:1010B000620B730B840BBAF09150A1F0FF0FBB1FB2
:1010C000661F771F881FC2F70EC0BA0F621F731FFB
:1010D000841F48F4879577956795B795F7959E3F58
:1010E00008F0B0CF9395880F08F09927EE0F9795E9
:1010F000879508950E945D0908F481E008950E9493
:1011000093080C9498090E94910958F00E948A094A
:1011100040F029F45F3F29F00C94810951110C949F
:10112000CC090C9487090E94A90968F39923B1F3AB
:10113000552391F3951B550BBB27AA2762177307FD
:10114000840738F09F5F5F4F220F331F441FAA1F91
:10115000A9F335D00E2E3AF0E0E832D0915050404D
:10116000E695001CCAF72BD0FE2F29D0660F771FFB
:10117000881FBB1F261737074807AB07B0E809F0E1
:10118000BB0B802DBF01FF2793585F4F3AF09E3F66
:10119000510578F00C9481090C94CC095F3FE4F37D
:1011A000983ED4F3869577956795B795F7959F5FA9
:1011B000C9F7880F911D9695879597F90895E1E0F5
:1011C000660F771F881FBB1F621773078407BA0754
:1011D00020F0621B730B840BBA0BEE1F88F7E095AF
:1011E00008950E94B10988F09F5798F0B92F992768
:1011F000B751B0F0E1F0660F771F881F991F1AF002
:10120000BA95C9F714C0B13091F00E94CB09B1E092
:1012100008950C94CB09672F782F8827B85F39F091
:10122000B93FCCF3869577956795B395D9F73EF49A
:1012300090958095709561957F4F8F4F9F4F089542
:10124000E89409C097FB3EF4909580957095619560
:101250007F4F8F4F9F4F9923A9F0F92F96E9BB2716
:101260009395F695879577956795B795F111F8CF92
:10127000FAF4BB0F11F460FF1BC06F5F7F4F8F4FFD
:101280009F4F16C0882311F096E911C0772321F0F3
:101290009EE8872F762F05C0662371F096E8862F8B
:1012A00070E060E02AF09A95660F771F881FDAF7E2
:1012B000880F9695879597F90895990F0008550F0F
:1012C000AA0BE0E8FEEF16161706E807F907C0F0CC
:1012D00012161306E407F50798F0621B730B840BD4
:1012E000950B39F40A2661F0232B242B252B21F4AE
:1012F00008950A2609F4A140A6958FEF811D811D4E
:10130000089597F99F6780E870E060E008959FEF87
:1013100080EC089500240A9416161706180609068C
:10132000089500240A94121613061406050608955B
:10133000092E0394000C11F4882352F0BB0F40F4E3
:10134000BF2B11F460FF04C06F5F7F4F8F4F9F4F23
:10135000089557FD9058440F551F59F05F3F71F0A5
:101360004795880F97FB991F61F09F3F79F087950C
:101370000895121613061406551FF2CF4695F1DF95
:1013800008C0161617061806991FF1CF8695710525
:10139000610508940895E894BB2766277727CB0159
:1013A00097F908950E945D0908F48FEF08950E944F
:1013B000EA090C9498090E948A0938F00E94910960
:1013C00020F0952311F00C9481090C9487091124C5
:1013D0000C94CC090E94A90970F3959FC1F3950F55
:1013E00050E0551F629FF001729FBB27F00DB11DA9
:1013F000639FAA27F00DB11DAA1F649F6627B00D39
:10140000A11D661F829F2227B00DA11D621F739F21
:10141000B00DA11D621F839FA00D611D221F749F2F
:101420003327A00D611D231F849F600D211D822F76
:10143000762F6A2F11249F5750409AF0F1F088239D
:101440004AF0EE0FFF1FBB1F661F771F881F9150CA
:101450005040A9F79E3F510580F00C9481090C94EF
:10146000CC095F3FE4F3983ED4F386957795679572
:10147000B795F795E7959F5FC1F7FE2B880F911DF4
:101480009695879597F908950E945D09880B990BA9
:101490000895A1E21A2EAA1BBB1BFD010DC0AA1FB5
:1014A000BB1FEE1FFF1FA217B307E407F50720F0CD
:1014B000A21BB30BE40BF50B661F771F881F991F48
:1014C0001A9469F760957095809590959B01AC0191
:1014D000BD01CF010895EE0FFF1F0590F491E02D9F
:1014E000099481E090E0F8940C94760AF894FFCF88
:1014F000000000008E03F7022603D50357033503CF
:1015000049030D0A006E616E00696E66006F7666B3
:101510000044485478782074657374210048756DD0
:1015200069646974793A20002025090054656D705A
:10153000657261747572653A2000202A432000208C
:101540002A4609004865617420696E6465783A200E
:1015500000202A46004661696C656420746F207221
:101560006561642066726F6D204448542073656E17
:06157000736F7221000000
:00000001FF
